{
  "contractName": "Vote",
  "abi": [
    {
      "inputs": [],
      "stateMutability": "nonpayable",
      "type": "constructor"
    },
    {
      "anonymous": false,
      "inputs": [
        {
          "indexed": true,
          "internalType": "uint256",
          "name": "_initiativeId",
          "type": "uint256"
        }
      ],
      "name": "votedEvent",
      "type": "event"
    },
    {
      "inputs": [
        {
          "internalType": "uint256",
          "name": "",
          "type": "uint256"
        }
      ],
      "name": "initiatives",
      "outputs": [
        {
          "internalType": "uint256",
          "name": "id",
          "type": "uint256"
        },
        {
          "internalType": "string",
          "name": "title",
          "type": "string"
        },
        {
          "internalType": "string",
          "name": "description",
          "type": "string"
        },
        {
          "internalType": "uint256",
          "name": "voteCountYes",
          "type": "uint256"
        },
        {
          "internalType": "uint256",
          "name": "voteCountNo",
          "type": "uint256"
        }
      ],
      "stateMutability": "view",
      "type": "function",
      "constant": true
    },
    {
      "inputs": [],
      "name": "initiativesCount",
      "outputs": [
        {
          "internalType": "uint256",
          "name": "",
          "type": "uint256"
        }
      ],
      "stateMutability": "view",
      "type": "function",
      "constant": true
    },
    {
      "inputs": [
        {
          "internalType": "address",
          "name": "",
          "type": "address"
        }
      ],
      "name": "voters",
      "outputs": [
        {
          "internalType": "bool",
          "name": "",
          "type": "bool"
        }
      ],
      "stateMutability": "view",
      "type": "function",
      "constant": true
    },
    {
      "inputs": [
        {
          "internalType": "uint256",
          "name": "_initiativeId",
          "type": "uint256"
        },
        {
          "internalType": "bool",
          "name": "hasVotedYes",
          "type": "bool"
        }
      ],
      "name": "vote",
      "outputs": [],
      "stateMutability": "nonpayable",
      "type": "function"
    }
  ],
  "bytecode": "0x60806040523480156200001157600080fd5b50620000726040518060400160405280601981526020017f476567656e20616c6c65732c2066c3bc72206e6963687473210000000000000081525060405180606001604052806032815260200162000db3603291396200011c60201b60201c565b620000d26040518060400160405280601f81526020017f476567656e207363687761727a652053636861666520696e206465722043480081525060405180606001604052806040815260200162000de5604091396200011c60201b60201c565b620001166040518060600160405280602b815260200162000d25602b91396040518060a001604052806063815260200162000d50606391396200011c60201b60201c565b620005a8565b60026000815480929190620001319062000204565b91905055506040518060a001604052806002548152602001838152602001828152602001600081526020016000815250600160006002548152602001908152602001600020600082015181600001556020820151816001019081620001979190620004c1565b506040820151816002019081620001af9190620004c1565b5060608201518160030155608082015181600401559050505050565b7f4e487b7100000000000000000000000000000000000000000000000000000000600052601160045260246000fd5b6000819050919050565b60006200021182620001fa565b91507fffffffffffffffffffffffffffffffffffffffffffffffffffffffffffffffff8203620002465762000245620001cb565b5b600182019050919050565b600081519050919050565b7f4e487b7100000000000000000000000000000000000000000000000000000000600052604160045260246000fd5b7f4e487b7100000000000000000000000000000000000000000000000000000000600052602260045260246000fd5b60006002820490506001821680620002d357607f821691505b602082108103620002e957620002e86200028b565b5b50919050565b60008190508160005260206000209050919050565b60006020601f8301049050919050565b600082821b905092915050565b600060088302620003537fffffffffffffffffffffffffffffffffffffffffffffffffffffffffffffffff8262000314565b6200035f868362000314565b95508019841693508086168417925050509392505050565b6000819050919050565b6000620003a26200039c6200039684620001fa565b62000377565b620001fa565b9050919050565b6000819050919050565b620003be8362000381565b620003d6620003cd82620003a9565b84845462000321565b825550505050565b600090565b620003ed620003de565b620003fa818484620003b3565b505050565b5b81811015620004225762000416600082620003e3565b60018101905062000400565b5050565b601f82111562000471576200043b81620002ef565b620004468462000304565b8101602085101562000456578190505b6200046e620004658562000304565b830182620003ff565b50505b505050565b600082821c905092915050565b6000620004966000198460080262000476565b1980831691505092915050565b6000620004b1838362000483565b9150826002028217905092915050565b620004cc8262000251565b67ffffffffffffffff811115620004e857620004e76200025c565b5b620004f48254620002ba565b6200050182828562000426565b600060209050601f83116001811462000539576000841562000524578287015190505b620005308582620004a3565b865550620005a0565b601f1984166200054986620002ef565b60005b8281101562000573578489015182556001820191506020850194506020810190506200054c565b868310156200059357848901516200058f601f89168262000483565b8355505b6001600288020188555050505b505050505050565b61076d80620005b86000396000f3fe608060405234801561001057600080fd5b506004361061004c5760003560e01c80637dad062314610051578063a3ec138d14610085578063c9d27afe146100b5578063e5ef83a2146100d1575b600080fd5b61006b600480360381019061006691906103eb565b6100ef565b60405161007c9594939291906104b7565b60405180910390f35b61009f600480360381019061009a9190610576565b610235565b6040516100ac91906105be565b60405180910390f35b6100cf60048036038101906100ca9190610605565b610255565b005b6100d96103aa565b6040516100e69190610645565b60405180910390f35b60016020528060005260406000206000915090508060000154908060010180546101189061068f565b80601f01602080910402602001604051908101604052809291908181526020018280546101449061068f565b80156101915780601f1061016657610100808354040283529160200191610191565b820191906000526020600020905b81548152906001019060200180831161017457829003601f168201915b5050505050908060020180546101a69061068f565b80601f01602080910402602001604051908101604052809291908181526020018280546101d29061068f565b801561021f5780601f106101f45761010080835404028352916020019161021f565b820191906000526020600020905b81548152906001019060200180831161020257829003601f168201915b5050505050908060030154908060040154905085565b60006020528060005260406000206000915054906101000a900460ff1681565b6000803373ffffffffffffffffffffffffffffffffffffffff1673ffffffffffffffffffffffffffffffffffffffff16815260200190815260200160002060009054906101000a900460ff16156102ab57600080fd5b600082116102b857600080fd5b60016000803373ffffffffffffffffffffffffffffffffffffffff1673ffffffffffffffffffffffffffffffffffffffff16815260200190815260200160002060006101000a81548160ff021916908315150217905550600115158115150361034c57600160008381526020019081526020016000206003016000815480929190610342906106ef565b9190505550610379565b600160008381526020019081526020016000206004016000815480929190610373906106ef565b91905055505b817ffff3c900d938d21d0990d786e819f29b8d05c1ef587b462b939609625b684b1660405160405180910390a25050565b60025481565b600080fd5b6000819050919050565b6103c8816103b5565b81146103d357600080fd5b50565b6000813590506103e5816103bf565b92915050565b600060208284031215610401576104006103b0565b5b600061040f848285016103d6565b91505092915050565b610421816103b5565b82525050565b600081519050919050565b600082825260208201905092915050565b60005b83811015610461578082015181840152602081019050610446565b60008484015250505050565b6000601f19601f8301169050919050565b600061048982610427565b6104938185610432565b93506104a3818560208601610443565b6104ac8161046d565b840191505092915050565b600060a0820190506104cc6000830188610418565b81810360208301526104de818761047e565b905081810360408301526104f2818661047e565b90506105016060830185610418565b61050e6080830184610418565b9695505050505050565b600073ffffffffffffffffffffffffffffffffffffffff82169050919050565b600061054382610518565b9050919050565b61055381610538565b811461055e57600080fd5b50565b6000813590506105708161054a565b92915050565b60006020828403121561058c5761058b6103b0565b5b600061059a84828501610561565b91505092915050565b60008115159050919050565b6105b8816105a3565b82525050565b60006020820190506105d360008301846105af565b92915050565b6105e2816105a3565b81146105ed57600080fd5b50565b6000813590506105ff816105d9565b92915050565b6000806040838503121561061c5761061b6103b0565b5b600061062a858286016103d6565b925050602061063b858286016105f0565b9150509250929050565b600060208201905061065a6000830184610418565b92915050565b7f4e487b7100000000000000000000000000000000000000000000000000000000600052602260045260246000fd5b600060028204905060018216806106a757607f821691505b6020821081036106ba576106b9610660565b5b50919050565b7f4e487b7100000000000000000000000000000000000000000000000000000000600052601160045260246000fd5b60006106fa826103b5565b91507fffffffffffffffffffffffffffffffffffffffffffffffffffffffffffffffff820361072c5761072b6106c0565b5b60018201905091905056fea2646970667358221220eed6124c142108f5d0666b92bfc6af26f7adb51a6fcd4885ddbeb4c670c6ff1c64736f6c6343000811003353656e736c65726465757473636820616c73206f6666697a69656c6c65204c616e646573737072616368654461732053656e736c65726465757473636820736f6c6c20616c732065696e7a69676520756e64206f6666697a69656c6c6520416d74737370726163686520646572205363687765697a2065696e676566c3bc6872742077657264656e2c206875692145787472656d2073696e6e626566726569746520496e69746961746976652c20416e6e61686d6520656d70666f686c656e2e5363687761727a652053636861666520736f6c6c656e2062656920416e6e61686d6520736f666f727420776569737320676566c3a47262742077657264656e2e",
  "immutableReferences": {},
  "source": "pragma solidity ^0.8.17;\r\n\r\ncontract Vote {\r\n\r\n  struct Initiative {\r\n    uint id;\r\n    string title;\r\n    string description;\r\n    uint voteCountYes;\r\n    uint voteCountNo;\r\n  }\r\n\r\n  mapping(address => bool) public voters;\r\n  mapping(uint => Initiative) public initiatives;\r\n  uint public initiativesCount;\r\n  event votedEvent (\r\n    uint indexed _initiativeId\r\n  );\r\n\r\n  constructor () public {\r\n    addInitiative(\"Gegen alles\\x2C f\\xC3\\xBCr nichts\\x21\", \"Extrem sinnbefreite Initiative\\x2C Annahme empfohlen\\x2E\");\r\n    addInitiative(\"Gegen schwarze Schafe in der CH\", \"Schwarze Schafe sollen bei Annahme sofort weiss gef\\xC3\\xA4rbt werden\\x2E\");\r\n    addInitiative(\"Senslerdeutsch als offizielle Landessprache\", \"Das Senslerdeutsch soll als einzige und offizielle Amtssprache der Schweiz eingef\\xC3\\xBChrt werden\\x2C hui\\x21\");\r\n  }\r\n\r\n  function addInitiative (string memory title, string memory description) private {\r\n    initiativesCount ++;\r\n    initiatives[initiativesCount] = Initiative(initiativesCount, title, description, 0, 0);\r\n  }\r\n\r\n  function vote (uint _initiativeId, bool hasVotedYes) public {\r\n    require(!voters[msg.sender]);\r\n    require(_initiativeId > 0);\r\n    voters[msg.sender] = true;\r\n    if (hasVotedYes == true) {\r\n      initiatives[_initiativeId].voteCountYes ++;\r\n    } else {\r\n      initiatives[_initiativeId].voteCountNo ++;\r\n    }\r\n    emit votedEvent(_initiativeId);\r\n  }\r\n}\r\n",
  "sourcePath": "D:\\FFHS\\BLK\\ffhs_blk_voting_system\\truffle\\contracts\\Vote.sol",
  "compiler": {
    "name": "solc",
    "version": "0.8.17+commit.8df45f5f.Emscripten.clang"
  },
  "schemaVersion": "3.4.11",
  "updatedAt": "2023-01-04T13:08:36.119Z",
  "networkType": "ethereum",
  "devdoc": {
    "kind": "dev",
    "methods": {},
    "version": 1
  },
  "userdoc": {
    "kind": "user",
    "methods": {},
    "version": 1
  }
}